S00E0000752D626F6F742E73726563C0
S31581700000B80000EA14F09FE514F09FE514F09FE5BF
S3158170001014F09FE514F09FE514F09FE514F09FE5C9
S3158170002060007081C0007081200170818001708153
S31581700030E001708140027081A0027081EFBEADDEF9
S31581700040DEC0AD0B0000A0E10000A0E10000A0E1E0
S315817000500000A0E10000A0E10000A0E10000A0E1A5
S3158170006028D01FE500E08DE500E04FE104E08DE5E5
S3158170007013D0A0E30DF069E10FE0A0E10EF0B0E1DD
S3158170008048D04DE2FF1F8DE850201FE50C0092E8A5
S3158170009048008DE234508DE20E10A0E10F0085E8A4
S315817000A00D00A0E149A700EB0000A0E10000A0E1EE
S315817000B00000A0E10000A0E10000A0E10000A0E145
S315817000C088D01FE500E08DE500E04FE104E08DE525
S315817000D013D0A0E30DF069E10FE0A0E10EF0B0E17D
S315817000E048D04DE2FF1F8DE8B0201FE50C0092E8E5
S315817000F048008DE234508DE20E10A0E10F0085E844
S315817001000D00A0E18DA700EB0000A0E10000A0E149
S315817001100000A0E10000A0E10000A0E10000A0E1E4
S31581700120E8D01FE500E08DE500E04FE104E08DE564
S3158170013013D0A0E30DF069E10FE0A0E10EF0B0E11C
S3158170014048D04DE2FF1F8DE810211FE50C0092E823
S3158170015048008DE234508DE20E10A0E10F0085E8E3
S315817001600D00A0E109A700EB0000A0E10000A0E16D
S315817001700000A0E10000A0E10000A0E10000A0E184
S3158170018048D11FE500E08DE500E04FE104E08DE5A3
S3158170019013D0A0E30DF069E10FE0A0E10EF0B0E1BC
S315817001A048D04DE2FF1F8DE870211FE50C0092E863
S315817001B048008DE234508DE20E10A0E10F0085E883
S315817001C00D00A0E1FDA600EB0000A0E10000A0E11A
S315817001D00000A0E10000A0E10000A0E10000A0E124
S315817001E0A8D11FE500E08DE500E04FE104E08DE5E3
S315817001F013D0A0E30DF069E10FE0A0E10EF0B0E15C
S3158170020048D04DE2FF1F8DE8D0211FE50C0092E8A2
S3158170021048008DE234508DE20E10A0E10F0085E822
S315817002200D00A0E141A700EB0000A0E10000A0E174
S315817002300000A0E10000A0E10000A0E10000A0E1C3
S3158170024008D21FE500E08DE500E04FE104E08DE521
S3158170025013D0A0E30DF069E10FE0A0E10EF0B0E1FB
S3158170026048D04DE2FF1F8DE830221FE50C0092E8E1
S3158170027048008DE234508DE20E10A0E10F0085E8C2
S315817002800D00A0E1B5A600EB0000A0E10000A0E1A1
S315817002900000A0E10000A0E10000A0E10000A0E163
S315817002A068D21FE500E08DE500E04FE104E08DE561
S315817002B013D0A0E30DF069E10FE0A0E10EF0B0E19B
S315817002C048D04DE2FF1F8DE890221FE50C0092E821
S315817002D048008DE234508DE20E10A0E10F0085E862
S315817002E00D00A0E1CDA600EB160000EA00000FE13B
S315817002F01F00C0E3D30080E300F029E1010000EB29
S315817003006E0000EB1EFF2FE10000A0E37AFF17EE6F
S31581700310FDFFFF1A170F08EE150F07EE100F11EE7E
S31581700320030CC0E38700C0E3020AC0E3020080E3E6
S31581700330010A80E3100F01EE0EC0A0E1530000EBBD
S315817003400CE0A0E10EF0A0E1E7FFFFEA10402DE995
S3158170035012A700EB3E0300EB5B0300EB150000EB8D
S315817003600000A0E3170F07EE1080BDE80030A0E310
S315817003707EFF17EEFDFFFF1A9A3F07EE1EFF2FE1F4
S3158170038070402DE90040A0E10150A0E10C0300EB23
S31581700390000050E37080BD08050054E10200003A08
S315817003A00030A0E39A3F07EE7080BDE83E4F07EEBE
S315817003B0204084E2F7FFFFEA1EFF2FE180B44F46AB
S315817003C080B40122044B52425A61083200201A616C
S315817003D004BC914680BC7047000CC201104B30B58D
S315817003E0CE4600B598690F49C04329F031FD49461B
S315817003F04B46B431B0330A68824209D80A681C68A0
S31581700400821A12191A600860186804BC914630BD48
S315817004100C68054D1A6852191218121BF2E7C046FC
S31581700420000CC201C05D00000CBB020030B5CE4627
S3158170043000B50400FFF7D2FF001B04BC914630BDA6
S315817004400C49182370B5CE4606005E4300B58B699C
S315817004500125DB43002E02DC04BC914670BD8A699E
S31581700460D243934203D29B1A9E191300F2E7AC1AB8
S31581700470E318F9E7000CC2014B4608B5FFF7AEFFEA
S31581700480002104BC914600BDFA20800070470000AF
S3158170049018D09FE507D0CDE3C8D04DE207D0CDE324
S315817004A00D90A0E100502DE98CA600EB0090BDE87F
S315817004B0307F000000000000000000000000000096
S315817004C078009FE50700C0E300D0A0E19FA600EB0E
S315817004D000D0A0E10090A0E160A600EB0000A0E34F
S315817004E02EA600EB400099E50700C0E300D0A0E19D
S315817004F0009099E5C89049E20CE08FE2440099E555
S3158170050000E08EE0300099E5210100EA160100EBEA
S315817005107BFFFFEB28009FE528309FE50010A0E365
S31581700520002053E00D0000EB58A600EB0FA600EB00
S315817005300900A0E1301099E50CE09FE51EFF2FE1DF
S31581700540307F0000E8B47381BC617781E5A07081EA
S3158170055000000000000000000000000000000000A4
S31581700560033010E200C0A0E11E00001A011481E17F
S31581700570011881E10130A0E1100052E30F0000BA49
S3158170058000412DE90180A0E101E0A0E1402052E225
S315817005900A41ACA80A41ACA80A41ACA80A41ACA8E8
S315817005A0F9FFFFCA0081BD08200012E30A41AC1829
S315817005B00A41AC18100012E30A41AC180041BDE83B
S315817005C0080012E30A00AC18040012E304108C14BC
S315817005D0020012E30110CC140110CC14010012E355
S315817005E00110CC141EFF2FE1042052E2F7FFFFBAEF
S315817005F0020053E30110CCB40110CCD40110CCE4C9
S31581700600032082E0D8FFFFEA010050E10EF0A001DD
S3158170061011402DE9042052E22B0000BA03C010E28A
S3158170062000F0D1F53000001A03C011E23A00001AC9
S315817006301C2052E2E0012DE90C0000BA00F0D1F5E0
S31581700640602052E21CF0D1F5020000BA3CF0D1F57F
S315817006505CF0D1F57CF0D1F5F851B1E8202052E209
S31581700660F851A0E8FAFFFFAA600072E3F9FFFFAACA
S315817006701CC012E220C06CE20CF08F10110000EAEF
S315817006800000A0E1043091E4044091E4045091E4C7
S31581700690046091E4047091E4048091E404E091E44F
S315817006A00CF08FE00000A0E10000A0E1043080E44E
S315817006B0044080E4045080E4046080E4047080E443
S315817006C0048080E404E080E4E001BDE8822FB0E13B
S315817006D00130D1140140D12401C0D1240130C0141C
S315817006E00140C02401C0C0241180BDE804C06CE201
S315817006F002005CE30130D1C40140D1A401E0D1E4B0
S315817007000130C0C40140C0A40C2052E001E0C0E4B5
S31581700710EDFFFFBA03C011E2C4FFFF0A0310C1E304
S3158170072002005CE304E091E42C00000A570000CAE1
S315817007301C2052E21F0000BAE0032DE900F0D1F5CA
S31581700740602052E21CF0D1F5020000BA3CF0D1F57E
S315817007505CF0D1F57CF0D1F5F000B1E82E34A0E1F2
S31581700760202052E20053B1E8043C83E12444A0E1A5
S31581700770054C84E12554A0E1065C85E12664A0E1FF
S31581700780076C86E12774A0E1087C87E12884A0E163
S31581700790098C88E12994A0E10C9C89E12CC4A0E1A3
S315817007A00ECC8CE1F813A0E8E9FFFFAA600072E332
S315817007B0E8FFFFAAE003BDE81CC012E20500000A4B
S315817007C02E34A0E104E091E404C05CE20E3C83E146
S315817007D0043080E4F9FFFFCA031041E2BAFFFFEAF1
S315817007E01C2052E21F0000BAE0032DE900F0D1F51A
S315817007F0602052E21CF0D1F5020000BA3CF0D1F5CE
S315817008005CF0D1F57CF0D1F5F000B1E82E38A0E13D
S31581700810202052E20053B1E8043883E12448A0E1F4
S31581700820054884E12558A0E1065885E12668A0E14E
S31581700830076886E12778A0E1087887E12888A0E1B2
S31581700840098888E12998A0E10C9889E12CC8A0E1F2
S315817008500EC88CE1F813A0E8E9FFFFAA600072E385
S31581700860E8FFFFAAE003BDE81CC012E20500000A9A
S315817008702E38A0E104E091E404C05CE20E3883E195
S31581700880043080E4F9FFFFCA021041E28EFFFFEA6D
S315817008901C2052E21F0000BAE0032DE900F0D1F569
S315817008A0602052E21CF0D1F5020000BA3CF0D1F51D
S315817008B05CF0D1F57CF0D1F5F000B1E82E3CA0E189
S315817008C0202052E20053B1E8043483E1244CA0E144
S315817008D0054484E1255CA0E1065485E1266CA0E19E
S315817008E0076486E1277CA0E1087487E1288CA0E102
S315817008F0098488E1299CA0E10C9489E12CCCA0E142
S315817009000EC48CE1F813A0E8E9FFFFAA600072E3D8
S31581700910E8FFFFAAE003BDE81CC012E20500000AE9
S315817009202E3CA0E104E091E404C05CE20E3483E1E4
S31581700930043080E4F9FFFFCA011041E262FFFFEAE9
S315817009400DC0A0E1F05F80E80000A0E31EFF2FE1FB
S31581700950F05F90E80CD0A0E10100A0E1000050E3C7
S315817009600000001A0100A0E31EFF2FE1300099E517
S31581700970102F11EE022A12E20010A00364109F1547
S31581700980FC05B0E8FC05A1E8FC05B0E8FC05A1E82A
S315817009901EFF2FE150109FE5014050E01000000AC4
S315817009A048209FE5000CB1E8000CA0E8020051E1F7
S315817009B0FBFFFF3A38209FE538309FE50300B2E8A8
S315817009C0FF1001E2170051E30300001A040080E072
S315817009D0001090E5041081E0001080E5030052E17B
S315817009E0F5FFFF3A1EFF2FE10000FFFF00007081C7
S315817009F0E8B47381E8B47381903474814B461A6814
S31581700A0008B584B06946936CD26C009300230193C8
S31581700A10029202AA039301330AF026FB04B004BC46
S31581700A20914600BD4B4608B5074B6946C9184B467A
S31581700A301A681B68926CDB6CD218521A1FF0A8FE6A
S31581700A4004BC914600BDC04600F0FFFF70470000B0
S31581700A504B4670B51B68CE4605000C0000B583B059
S31581700A601B6C066E1C48019307F0F8FC002809D0B0
S31581700A7001AA102125F054FC002824DB019917481E
S31581700A8025F082FB80230F209B001C4007F0A5FD7B
S31581700A901349002C00D11349134825F075FBAB20FF
S31581700AA007F09BFDFFF7D2FFC020C00013F04EF90F
S31581700AB029F06EFA2B6F002B09D0EA6E002C02D1C9
S31581700AC001992000B04703B004BC914670BD4B4676
S31581700AD01B685A6CF2E7C0460CC7728113C7728164
S31581700AE0F5C67281DE7B738138C77281704700006B
S31581700AF0F0B5CE4600B5060082B0404807F0AEFC30
S31581700B00336F0700002B09D030000FF070FB00287F
S31581700B104AD03B4825F038FB24F00AFB4A46394DCA
S31581700B2012686846546C384AA36062600522E36035
S31581700B3023612300143322602B6000F027FD334B31
S31581700B40A36104236361009BE361019B236223009C
S31581700B5024332B604B461B68002F2AD148462B685D
S31581700B60026804242A491C605960916CD26CD960E0
S31581700B70716F9A601A0010322A60002932D0B26F72
S31581700B80002A2FD0006823481C615861521A9961D6
S31581700B90DA6120332B602800FFF7A8FF4B460022CD
S31581700BA01B682B685A601A6002B004BC9146F0BD0E
S31581700BB001373B78202BFBD0002BCFD0164B3800DA
S31581700BC0A36224F06FFB2B680D30800839001860A2
S31581700BD00833180024F008FB2B681A6892009B185A
S31581700BE02B60BBE7716E0029D5D0B26E002AD2D048
S31581700BF000680848586104201861C7E7B7E87281B0
S31581700C0051C77281E8B47381010041540600415421
S31581700C10020041540500425409004154F0B5CE4654
S31581700C20C02700B505001E00074018D180246400D6
S31581700C30044007D03C001800FFF75AFF200004BC1F
S31581700C409146F0BDC023DB00184204D029003000E4
S31581700C50FFF7FEFEF2E73000FFF74AFFF6E7012461
S31581700C606442EBE730B50400C06ECE4600B500280D
S31581700C700CD0094922F0C7FC002807DAE06EFFF72D
S31581700C80BDFE002802D005480DF06EFF29F080F96F
S31581700C9004BC914630BDC04671C7728179C7728175
S31581700CA04A46036E04B5C06E984704BC914600BD32
S31581700CB030B5841D431DE47FDB7F24021A4D1C43AE
S31581700CC0C31DDB7F1B041C4303000833DB7F1B06BC
S31581700CD023430124AB4225D10400030029342833F0
S31581700CE024781B7824021C4303002A331B781B0447
S31581700CF01C4303002B331B781B06234300240B6094
S31581700D00010003002D3109782C331B7809021943B0
S31581700D1003002E332F301B781B04194303781B066F
S31581700D200B431360200030BD18286F0180B44F4685
S31581700D303A6C002080B4FA633A6C103A3A6404BC17
S31581700D40914680BC7047000080B44F46FB6B002093
S31581700D50034A083380B4136004BC914680BC7047E3
S31581700D604000708170470020704700004B460248F2
S31581700D7008B525F06AFAC04690C17281F0B5CE4643
S31581700D8000B5A2B002AD0400802228002E4929F058
S31581700D903FF8A26BE16B2D48266C25F0F5F94B4631
S31581700DA05A68370F3F07D20708D5596C5A6CA36BAF
S31581700DB027489A1AE36B591A25F0E6F9E36A226B8A
S31581700DC0616B244825F0E0F9236A626AA16A224838
S31581700DD025F0DAF92369A269E16900931F4863698D
S31581700DE025F0D2F92368E168A26800931C4863688C
S31581700DF025F0CAF94E21002F00DB20315A2273006B
S31581700E0000D420324323B00000D420335620F6001C
S31581700E1000D420300090134825F0B6F9236C12491E
S31581700E201A0600D51149104A580600D50F4A1F2057
S31581700E3003400F489B0000900E48EB5825F0A4F9AB
S31581700E4022B004BC9146F0BDA8A0728137337381FC
S31581700E5031337381593373817D337381A133738157
S31581700E60D133738101347381C673738156E2728112
S31581700E70DE7B73811134738130B5CE4600B5040043
S31581700E801BF08CFB054825F07FF9E36B2000043B52
S31581700E90E363FFF773FFFFF769FFC04697FE7281C1
S31581700EA030B5CE4600B504001BF078FB054825F0B9
S31581700EB06BF9E36B2000043BE363FFF75FFFFFF79A
S31581700EC055FFC04622FE728130B5CE4600B504000C
S31581700ED01BF064FB054825F057F9E36B2000083B4E
S31581700EE0E363FFF74BFFFFF741FFC04655FD728104
S31581700EF030B5CE4600B504001BF050FB054825F091
S31581700F0043F9E36B2000083BE363FFF737FFFFF795
S31581700F102DFFC046C5E9728130B5CE4600B5040055
S31581700F201BF03CFB054825F02FF9E36B2000083B4D
S31581700F30E363FFF723FFFFF719FFC046F0FC728169
S31581700F4030B5CE4600B504001BF028FB054825F068
S31581700F501BF9E36B2000083BE363FFF70FFFFFF795
S31581700F6005FFC04611F2728130B5CE4600B50400D8
S31581700F701BF014FB054825F007F9E36B2000083B4D
S31581700F80E363FFF7FBFEFFF7F1FEC04616F272814F
S31581700F907047000010B507480DF0E6FD064824F04D
S31581700FA06DFAFFF7E0FEFFF7F3FF002000F0E6F839
S31581700FB0002010BDDEFD728150C30000011080E0FB
S31581700FC0EEFCFFEA013080E11F0013E30600000AA0
S31581700FD00120A0E110402DE90010A0E110009FE5ED
S31581700FE066A300EB0000A0E31080BDE80100A0E3DA
S31581700FF01EFF2FE160CA72811EFF2FE11EFF2FE156
S31581701000C03099E5031B81E3001A81E1001183E702
S315817010101EFF2FE110402DE9004099E5804184E063
S31581701020482094E5222AA0E14C3094E5481094E555
S31581701030233AA0E1213A83E0020053E11080BD9802
S315817010400200A0E11E10A0E3ECFFFFEB012082E21B
S31581701050F4FFFFEA103F11EE103F11EE013AC3E340
S31581701060103F01EE1EFF2FE110402DE9104F11EE5A
S31581701070014014E21000001ADEFFFFEB0400A0E1CC
S315817010801210A0E3014084E2DCFFFFEB010A54E316
S31581701090F9FFFF1A0000A0E3DDFFFFEBC03099E591
S315817010A0103F02EE0030E0E3103F03EED2FFFFEB1C
S315817010B0103F11EE013083E3103F01EE103F11EEC8
S315817010C0043083E3103F01EE1080BDE8103F11EECE
S315817010D0040013E31EFF2F0110402DE9104F11EE0E
S315817010E00540C4E3A0FCFFEB104F01EE1080BDE814
S315817010F0100F11EE2001A0E1010000E21EFF2FE129
S315817011004B4608B500F051F8FFF758F90521802054
S3158170111000F080F80521812000F07CF80121812082
S3158170112000F0BAF800F0D0F904BC914600BD000019
S315817011304B46082208B504200E4924F02AF9002866
S3158170114013D12823197803290CD8080028F018FFA1
S315817011500F020608042004BC914600BD0220FAE7FE
S315817011600820F8E7044825F070F80C20F3E7012091
S31581701170F1E7C046557973815E797381494602B4C8
S315817011800122034B5A619A61024A1A61FEE7C0468F
S31581701190A00CC201AF1400004B4608B528F0C0FE02
S315817011A004BC914600BD7047704710B500F0E4F8F5
S315817011B0FFF7FAFF002010BD10B502480DF0D4FC80
S315817011C0002010BD912D7381064B1B680360064B01
S315817011D01B684360054B1B688360054B1B68C36046
S315817011E0002070470038C2010438C2010838C20134
S315817011F00C38C20110B58C00C9061C23890F1C409E
S315817012008900A24041180F200B68A04083431A437E
S315817012100A6010BD70B5242345090A001900694317
S315817012200400054BC8180A2D01D8044BC818210033
S31581701230FFF7E0FF70BDC046742AF0010008C20155
S31581701240CB069B0F9B00C01800681C238900194030
S315817012500D3BC8401840704770B51E234609C506B8
S315817012604000242418400A4B22007243ED0FD31894
S315817012700A2E01D8074BD318AD0014335B1903249A
S315817012801A68844081400020A2431143196070BD61
S31581701290742AF0010008C20170B51E234609C5067D
S315817012A04000242418400A4B22007243ED0FD31854
S315817012B00A2E01D8074BD318AD001C335B19032452
S315817012C01A68844081400020A2431143196070BD21
S315817012D0742AF0010008C20130B5CE46204D00B5A2
S315817012E0280015F009FF1F4C606000281EDA28005F
S315817012F015F002FFA060002826DA280015F0FCFEA2
S31581701300E06000280DDB184915F0F8FC002818D12B
S31581701310E06815F03BFD002813D10121E068FFF7E5
S31581701320BBFF124B00201A681A600AE0104915F04B
S31581701330E5FC002805D10100606815F041FD0028A3
S31581701340D5D004BC914630BD0A4915F0D7FC00282A
S31581701350F7D1A06815F01AFD0028CED0F1E7C04606
S31581701360DE7B738188897381B5797381CC00C20183
S315817013709F797381A87973810B4A0C4B1A6080228D
S31581701380520519681142FCD00949C622094B92014E
S315817013901A6080230A685B031A430A60064A1168D9
S315817013A00B4313607047C046001804902800C20131
S315817013B06800C2015400C201D002C201074B1B688A
S315817013C0D804074AC00E0130110041439806800F38
S315817013D0013003004B4318007047C0462800C20194
S315817013E000366E0170B5CE4600B595B011220021DA
S315817013F005000FA828F044FD07A8FFF7E5FE041E37
S3158170140049D1079B002B46D00C2208A923F034FEC4
S31581701410030244D002260A90264922000BA824F0A2
S31581701420A7FE0BA9280022F0FAF800281ED0002CFE
S3158170143039D121490BA823F0D7FE0BA807F00EF8F6
S31581701440002813D1230105A933430BA80B70079B81
S3158170145003936B461B7B4B700A9B1A0E4B718A707A
S315817014601A0CCA701A0A0A7126F02AF90134042CE8
S31581701470D2D1124C200006F0F1FF00280BD10A9BC5
S3158170148011210F4A0FA80093079B24F05CFE0FA9C8
S31581701490200006F089FE15B004BC914670BD80238C
S315817014A01B041843B6E7220006490BA824F060FE98
S315817014B0C3E7C046C5327381D0327381E23273819C
S315817014C0EA327381D8327381704700004B46F0B52A
S315817014D01B68CE46FA26144AB600144D00B55A6476
S315817014E0280015F009FE1249040015F007FC20004A
S315817014F0F624FF34012115F063FC013C002C0ED1DA
S31581701500280015F0F9FD0B49050015F0F7FB280049
S31581701510012115F055FC200004BC9146F0BD3000C8
S3158170152023F0ACFFE9E7C04600010080DE7B738162
S3158170153045C472814DC4728180204A46000604B5C5
S3158170154001000FF0EDF84B465863002004BC9146BC
S3158170155000BD30B5A0240225CE4600B520002900F5
S31581701560FFF758FE01212000FFF796FE2000290023
S315817015700134FFF771FEA62CF0D1002015F0CCF85E
S3158170158043425841404204BC914630BD30B5CE4647
S3158170159000B50400074806F061FF002808D01022C4
S315817015A0002124F009FF6160206004BC914630BD42
S315817015B06060F9E7E232738170B5CE46274E0021BD
S315817015C000B585B0300006F0EFFD254D002128006D
S315817015D006F0EAFD234C0021200006F0E5FDFFF7B9
S315817015E0A7FD0C282FD12049300006F0DDFD03229E
S315817015F01E49142023F0CDFE002806D1C27D022A11
S315817016000DD002211A4824F0BFFD4B46D86DFFF7E5
S31581701610E9FEFFF761FE05B004BC914670BD816934
S315817016200029F2D0C269002A09D001230390029061
S315817016300190009309330F4823F03CFAE5E72800BF
S3158170164006F0E2FDE1E70C49012802D00228DCD1DF
S315817016500549200006F0A8FDD7E7C0463D20738175
S315817016604820738157207381197C738163207381BC
S315817016706720738150A3738181C172814B4608B58E
S31581701680FFF7B0FE002004BC914600BD10B5030083
S3158170169008001100984710BD70B514001D00012A0D
S315817016A017DD10220021586824F008FE010006001B
S315817016B0094824F069FD611E2A1D3000FFF7E6FF97
S315817016C0040001000548631E9C4124F05DFD2000E5
S315817016D070BD01246442FAE752F272817AF27281A4
S315817016E0F0B5CE4600B51C0088B0531E06000F00BB
S315817016F00493231D0593531E1500002B34DD102290
S3158170170007A9606824F0DAFD079B1B78002B2BD024
S315817017103A2B29D0232B27D00922184960680FF0DC
S315817017203BFA2300AA1E083300280ED0C16801290E
S3158170173000D106311248CC070DD404008C3424684C
S31581701740A14208DC0F4824F01FFD0120404208B0F9
S3158170175004BC9146F0BD0024019002940091390039
S31581701760300008F0A1FDF2E70123049A0293044B3D
S315817017700193054B0093059BF1E7C046548D7381A8
S3158170178090BE7381B0E472811F07000030B5CE467A
S3158170179000B50C00044806F061FE21000FF050F987
S315817017A004BC914630BDC04698E2728130B5CE4652
S315817017B0010000B50400204824F0E6FC20000EF0FC
S315817017C097FB0500012832D11C480DF0CDF92368AD
S315817017D0FF200004190E1A060A43190201401B0ADA
S315817017E00A43FF21090216480B401343154A934257
S315817017F005D120000EF044F9002806D112480DF06B
S31581701800B3F9280004BC914630BD20000EF096FADB
S315817018100E480DF0A9F920000EF057F9002801D174
S315817018200B48ECE70B4800250DF09EF9E9E70A486D
S3158170183001250DF099F9E4E73A1773815B17738186
S315817018407217738156190527871773819F1773814D
S31581701850BA177381CB177381CF177381F0B5CE4663
S3158170186000B5012A08DC0E4B1868FFF79FFF06004A
S31581701870300004BC9146F0BD92001C1D9D18002657
S31581701880012710220021206824F018FDFFF78EFFB2
S31581701890002800D03E000434AC42F2D1E8E7C0465D
S315817018A02CA3738170B5CE4600B5050083B00E004A
S315817018B00E4806F0D3FD002804D1002003B004BC85
S315817018C0914670BD0A4923F0C3FC041EF5D1094BBC
S315817018D0019009481968009624F056FC6B460122DE
S315817018E021002800FFF7FCFEE8E7C046DAC972815D
S315817018F0E4C972812CA37381E8C97281F7B5050039
S31581701900074C0848084E01930B00241A0092A710C1
S315817019102A003C00744321000FF0A6F9FEBDC04633
S3158170192088AD738170A57381B76DDBB600B5B3B0C1
S31581701930C8226946002023F03DFA24F025FC04482C
S315817019400DF012F903480DF00FF9002033B000BD88
S315817019502401738163017381F0B5050087B010002E
S315817019600C0016001F0012F04DFF0390032D00D955
S3158170197069E0280028F004FB2B2B02380322634987
S31581701980606823F072FC051E05D1300012F084FF69
S31581701990280007B0F0BD03225D49606823F065FCBD
S315817019A000280DD13968300012F096FF002801D1D8
S315817019B00025EDE70399574824F0E6FB0125E7E713
S315817019C004225549606823F050FC051E02D001251A
S315817019D06D42DDE7300012F01CFF0028E8D00399D4
S315817019E04C4824F0D1FBD3E749490322606823F040
S315817019F03CFC011E0FD10A22A06824F05FFC010015
S31581701A000400300012F084FF051ED7D13C60434834
S31581701A1024F0BAFBBCE740490422606823F025FCB8
S31581701A20011ED4D1A0680A2224F048FC040001006A
S31581701A30300012F018FF0028BAD022000399384876
S31581701A4024F0A2FBBAE73749606823F001FC051ED2
S31581701A502DD101001022A06824F030FC2900059058
S31581701A601022E06824F02AFC290004901022206953
S31581701A7024F024FC00900500049B3A6803992A4857
S31581701A8024F082FB059B3000049A00932B00396801
S31581701A9012F0B0FF254A0400854200D0244A2548B9
S31581701AA021002D1B6B1E9D4124F06EFB70E7224930
S31581701AB0606823F0CDFB051E89D101001022A068D4
S31581701AC024F0FCFB290005901022E06824F0F6FBD7
S31581701AD0290004901022206924F0F0FB0090050003
S31581701AE0049B3A680399154824F04EFB059B300098
S31581701AF0049A00932B00396812F094FF0B4A040004
S31581701B00854200D00A4A21000D48CAE7C3C1728155
S31581701B1006357381C7C17281AA607381E1C1728191
S31581701B20FCC172815458738119C27281BAC1728132
S31581701B30BDC1728149C27281333E73815EC27281C7
S31581701B408FC2728170B50500294816F063F9060057
S31581701B5028000EF0CDF90400012843D12B68FF20AF
S31581701B600004190E1A060A43190201401B0A0A4318
S31581701B70FF2109021F480B4013431F4A934205D127
S31581701B8028000DF07DFF002804D11C480CF0ECFF75
S31581701B90200070BD002E06D028000DF096FF00281B
S31581701BA001D11748F2E7AB7F1648062BEED12B6C25
S31581701BB02800FF2540302D041A0E190611431A028A
S31581701BC02A401B0A1143FF2212021340194301D185
S31581701BD00D48DBE702680430002AFBD10EF03CFF2A
S31581701BE00400D5E7094801240CF0BEFFD0E7C04652
S31581701BF0653473816C347381561905277E3473818C
S31581701C008E3473819C347381AC347381BA347381AD
S31581701C1010B5012A0EDD10220021586824F04EFB82
S31581701C2004002100054824F0AFFA00212000FFF757
S31581701C3089FF10BD81242406F3E7C04636FE728182
S31581701C404B460A0008B50100024824F09DFA04BC8F
S31581701C50914600BD082E73814B4630B51C68CE46C1
S31581701C6000B5216C2448FFF7EBFF616C2348FFF7C1
S31581701C70E7FFE36C002B0BD000212148FFF7E0FFD3
S31581701C80A16C2048FFF7DCFFE16C1F48FFF7D8FF96
S31581701C904B461E48996824F077FA4B461C48C033E8
S31581701CA01968FFF7CDFF4B461A48196BFFF7C8FFC6
S31581701CB04B461948596CFFF7C3FF4B461748D96B8A
S31581701CC0FFF7BEFF4B461648196CFFF7B9FF4B46B7
S31581701CD080229C33D2001968124824F055FA4B46FB
S31581701CE0DA6D002A03D0D96D0F4824F04DFA0020A1
S31581701CF004BC914630BDC046F4E1728100E27281C6
S31581701D000CE2728116E272811FE2728127E2728120
S31581701D103DE2728146E2728150E272815AE272814B
S31581701D2061E272816BE2728189E272810A4B494604
S31581701D3002B501221A701BF07FFF1DF0A1FE1EF005
S31581701D407DF81EF055F91DF06FFD1BF000FC1BF040
S31581701D50FFFB04BC914600BDF4B47381F0B5CE46E9
S31581701D6000B5FAB00F00150000216822079014A8FB
S31581701D701E00002428F084F8142200210FA828F070
S31581701D807FF81022AB490BA828F042F898220021DF
S31581701D9052002EA828F074F8A5420FD12C00002E7F
S31581701DA00CD1A54824F0F0F900220023300000926E
S31581701DB001931CF0C9FE0500040006009F4B1B7839
S31581701DC0002B11D033002A000FA914A81BF0B2FA88
S31581701DD01AF0DAFB002F0AD1994824F0D5F900213F
S31581701DE00BA81BF03DFAAAE0FFF7A0FFEAE73800DF
S31581701DF020F062FB0028EFD17B68FF252D04060059
S31581701E001A06190E11431A022A401B0A0A43FF2128
S31581701E1009020B401A434B4615001A681B68916C70
S31581701E20DB6C002B01D101214942864A0023802037
S31581701E30000552197341002504920593049B1A0B70
S31581701E4013030293059B029A03931B05160B0A18BB
S31581701E50029803991E432B0012184B410421089254
S31581701E600993012008AB32001CF0D6F8A84223D022
S31581701E708020029940010DF045FD08AB0890320033
S31581701E800421012009951CF0C7F8A84214D06E4828
S31581701E9024F07AF9002329001A002EA80EF0BAFBD5
S31581701EA0061E2AD016246948644224F06DF92000F2
S31581701EB07AB004BC9146F0BD7968FF200004089D14
S31581701EC0FF260A0E0B0613430A020240360213439B
S31581701ED00A0A324039001A43280027F099FF029B7B
S31581701EE0FF273F041B021F40029B1B0A1E40029B59
S31581701EF03E431B0E33436B60CCE729000BA81BF066
S31581701F00AFF96B68280B00031A0E1F061743FF2261
S31581701F10190212040A40FF2109021B0A0B403A4337
S31581701F201A434B4B3100ED1801232D1A0193521927
S31581701F300333120B0093023233001BF043FF454883
S31581701F4006F08CFA002306001B931A93984257D198
S31581701F5014A907981AF05AF80690002867D0002CB1
S31581701F602FD020AB06AA1B780021237169239B1879
S31581701F701B7863716A239B181B78A3716B239B18DB
S31581701F801C9A1B782173100A61736072100CA0728F
S31581701F90100EE3710B00E072A173E1731E981F99A5
S31581701FA0227212184B41110A22746174110C120E2D
S31581701FB02375E2741A0A62751A0C1B0EA174A275C6
S31581701FC0E3752549254806F0EFF824A827F078FFB0
S31581701FD0239C00280FD1069B139D002B25D0204969
S31581701FE02800984704001E4B21002800DB6B9E6FEA
S31581701FF000231A00B047109B0F9A53601A6056E7F8
S3158170200023F050F9451C022128000DF0A9FA1B9086
S31581702010002803D1134824F0B7F899E72A003100D4
S315817020206D001EF07BF81A9592E70F4CDBE7022460
S315817020306442E0E7D4BC72811DE37281F4B473812A
S31581702040B5E37281FF1F000067E372818FE372814E
S31581702050FF0F0000B7E87281FEE372811EE4728120
S3158170206080B37381E8E3728101000080F0B5CE465A
S3158170207000B5160082B01D00012A4FDD29495868C6
S3158170208023F0E6F800282FD10400022E05D0010036
S315817020901022A86824F012F90400234B1B78002BB8
S315817020A001D1FFF743FE1AF06FFA01A968461DF058
S315817020B009FB05000120002D12D029001B4824F050
S315817020C063F8019B2100009A2800FFF747FE4100C3
S315817020D004004908164824F057F82000441EA04190
S315817020E002B004BC9146F0BD1022002168680024BC
S315817020F024F0E4F80700022E05D021001022A8688A
S3158170210024F0DCF8040039000A4824F03DF80A4BC3
S3158170211021000A4A38001B681268D6E701204042BE
S31581702120DEE7C046A0E27281F4B47381A8E272815F
S31581702130CFE27281F3E27281F0B47381ECB4738110
S31581702140F0B5CE4600B588B005000F0014000021A9
S315817021502022684627F094FE2449280023F078F8D7
S3158170216000283CD00A220021380024F0FAF80100B8
S3158170217028000FF001F8061E2DD03A21380023F081
S3158170218085F80021884204D00130102224F096F817
S31581702190010030001CF016FC154B1860002C1AD00B
S315817021A01249280023F054F82300124A002800D0DF
S315817021B0114A2021684623F0C6FF5C246B462F2185
S315817021C0180023F063F800280CD16A4601001CF0D0
S315817021D031FC0A4B186008B004BC9146F0BD1CF006
S315817021E083FCD9E7431C0470E9E7C046FC0573811B
S315817021F0ECB4738104F97281ED137381F0B47381D8
S31581702200F0B589B0224C551E1F1D2A0005930123F6
S3158170221002930E0000933B000194049008F044F8F9
S31581702220002D0CD11B4B1B68236607AA06A9206E4D
S31581702230FEF73EFD00280AD0012009B0F0BD059B4E
S3158170224010220021586824F039F82066EDE7079B43
S31581702250069A216E10489A1A1EF09AFA3A00290047
S31581702260300007F067FF0028E6D108F011F82300E7
S3158170227005225E3331001A7001230293E223DB005B
S31581702280019400932A003B00049808F00DF8D4E776
S3158170229090BE73812CA3738120BF7381F7B50EF0C5
S315817022A0B1FA060015480CF05FFC3468B44201D16E
S315817022B00020FEBD27002100443F01203A683C3949
S315817022C04923024200D11B3B4F20950700D4213808
S315817022D0002500900A4823F057FF0A4B5B59BB4291
S315817022E004D1094B0948595923F04EFF04350C2DF9
S315817022F0F3D10A200CF00EFC2468D7E799E9728134
S31581702300B5E97281D41A748130A373818DCB728150
S31581702310F7B501273E0000920193009B9E4206DB32
S31581702320002F02D00A200CF0F5FB0020FEBD019A29
S31581702330B300D558012E02DD20200CF0EBFB0F493E
S31581702340280023F03CF8041E13D000232800237044
S31581702350A51C0CF009FC5C2308492370280023F026
S315817023602EF8041EF1D1270028000CF0FDFB0136F2
S31581702370D3E728000CF0F8FBF9E7C046D1E9728102
S31581702380F8B50500002602272B8E9E4201DBA869CF
S31581702390F8BD2B6AEC1828237343E418A3683B4273
S315817023A00FD0E06800280CD06269002A09D0636872
S315817023B0082B08D1002127F063FD6169E06827F059
S315817023C0F7FC0136E0E72369E91827F021FDF4E788
S315817023D010B501000268064B06489A4204D10B8AF1
S315817023E00120022B03D0044823F0CEFE002010BDBD
S315817023F07F454C46D0867381F4867381F0B517001C
S3158170240087B03F481E0006F029F87B1E0290009324
S31581702410351D002B48DD746823782D2B42D1637866
S31581702420702B01D0732B3DD1BB1E350000930835BF
S31581702430002B3ADD05AA1021286823F071FF16302A
S3158170244033D0009B0435013B009305980126FFF735
S31581702450BFFF002823D0059E002C44D06378702B53
S3158170246041D1F3690027F3180393039B7C01E41828
S31581702470B38D9F421DDBB3690593029B002B37D1C8
S315817024800599204823F080FE2900059B009898477E
S31581702490060001001C48731E9E4123F075FE3000B4
S315817024A007B0F0BD0024C5E70024184B1B6805935F
S315817024B0CBE7E36822690193002A04D063680198A7
S315817024C0F11827F0A5FC20696269904205D0019BBD
S315817024D0121A0021181827F0D3FC21690137019847
S315817024E027F066FCC1E73000FFF74AFF0590C4E725
S315817024F00749029822F0ACFE061EC1D1CFE7C046CD
S31581702500DAC972815EE4728186E472812CA37381E9
S31581702510ADE47281F0B51600A3B01D00012A24DCEA
S31581702520784B1C6878480CF01FFB784805F096FF4D
S31581702530002832D1764823F027FE2000FFF748FF26
S31581702540002800D1D9E02000FFF71AFF040021008E
S31581702550704823F019FE27F003FD0020A0476E48CE
S315817025600CF002FB012023B0F0BD102200215868C7
S3158170257023F0A4FE0400022ED4D16849686822F043
S3158170258067FE0028CED1033025F0F8FA0028E9DD00
S315817025902100634823F0F8FDC4E71022002123F05F
S315817025A08DFE05005F4805F059FF061E19D022F091
S315817025B079FE0200FF2800D2FF223100280027F021
S315817025C027FC300022F06EFE0100FF2800D2FF2129
S315817025D0280027F0EDFB2A002900534823F0D4FD0B
S315817025E0ABE7524805F03AFF061E79D0010002A882
S315817025F022F0FAFD300022F055FE06004C4805F0B7
S315817026002DFF02AB0200F018002A6DD0494923F0E4
S31581702610AFFD3618484805F021FF021E25D002AB62
S315817026204649F01823F0A4FD454F3618380005F059
S3158170263015FF02AAB3180193002859D0380005F006
S315817026400DFF1EF021F9FF21020E030609041343C3
S3158170265002020A403B491343020AFF2000020240EC
S3158170266001981A4323F084FD3618374805F0F6FE33
S31581702670021E05D002AB3549F01823F079FD361864
S31581702680334805F0EBFE021E05D002AB3149F018D6
S3158170269023F06EFD3618304805F0E0FE021E05D037
S315817026A002AB2E49F01823F063FD36182C4805F0DD
S315817026B0D5FE071E07D002AB3900F01822F094FDC3
S315817026C0380022F0EFFD02A822F0ECFD0200FF280F
S315817026D000D2FF2202A9280027F09AFB02A871E78F
S315817026E0204823F051FD89E71F4923F041FD90E78A
S315817026F01E49019823F03CFDB6E71D480CF034FA6B
S3158170270025E7C0462CA37381C2E77281F0E7728197
S31581702710F9E7728107E972812BE9728185E77281A6
S315817027208AE77281B7E87281C0E872815B207381B2
S315817027304AE8728153E872816AE8728171E87281BE
S3158170274076E872817EE8728185E872818EE872811F
S3158170275094E872819EE87281A4E87281ADE8728193
S31581702760B4E8728124E872815CE872810026738193
S31581702770E1E8728110B50020012A04DD01000A2288
S31581702780586823F09BFD02235B42181A10BD13B55E
S315817027900224009416F07CFB16BD13B502240094B6
S315817027A016F09AFB16BD13B50224009416F052FCEE
S315817027B016BD13B50224009416F08EFB16BD13B5A3
S315817027C00224009416F046FC16BD13B501240094BC
S315817027D016F05EFB16BD13B50124009416F07CFBD2
S315817027E016BD13B50124009416F034FC16BD000095
S315817027F0F0B51D00A9B0002305920793042A05DC64
S315817028000EF012FA0400200029B0F0BD01270AAB40
S31581702810009707AAA9683C0068680EF0A5FE061E97
S31581702820F1DB07980AA94368049318F0F5FF041E33
S3158170283007D03300049A6968174823F0A5FC0124F0
S31581702840E1E701001022E86823F038FD059B070057
S315817028502000052B04D010222100686923F02EFDFB
S3158170286008AB009002930023019300220023390064
S31581702870286919F0E1FA002807DA0096049B6A68DC
S315817028802969064823F080FCD9E7089A099B044890
S3158170289023F07AFCB7E7C0460AEC728136EC728116
S315817028A061EC7281F0B51D00A3B0012A06DC0024AB
S315817028B0104823F069FC200023B0F0BD012404ABDD
S315817028C0009403AAA96868680EF04EFE061EF2DBB4
S315817028D0039804A9476818F09FFF002806D0330033
S315817028E03A006968044823F04FFCE4E718F0DCFF8E
S315817028F00400E0E7B4EB7281DFEB7281F0B5CE460E
S315817029000568040000B5002D06D1274823F03CFCEC
S31581702910280004BC9146F0BD28001FF0CDFD06004D
S315817029200120002EF5DA30001FF0B4FF01001F4838
S3158170293023F02AFC0A3631D16B69FF2000041A0E06
S31581702940190611431A0202401B0A1143FF22120211
S31581702950134019430F2903D81022154823F014FC0C
S31581702960AA69FF263604FF200002110E13060B4357
S3158170297011023140120A0B4302401A43112A0DD9B2
S315817029806B691A0E190611431A0216401B0A034007
S31581702990314319431122074823F0F6FB064823F089
S315817029A0F3FB00202060B4E7060F7381310F7381CA
S315817029B04F0F7381670F73813B29738110B500291E
S315817029C01FD04318013B1B78002B01D00A2B07D1EE
S315817029D00D4A48240378002B0FD0D35CA34309D1C9
S315817029E000210EE001290CD04378002BF8D00130FC
S315817029F00139EFE70029FADCF2E70029F2DC4B4274
S31581702A005941080010BDC0460EBF7281F0B5CE46E1
S31581702A1000B5050082B00F1E0DD0FFF7CFFF041EE3
S31581702A2020D0344E002430000CF09EF8BC4206DB78
S31581702A3030000CF099F802B004BC9146F0BD002CC0
S31581702A4002DD2D480CF090F8280001340CF08CF8DA
S31581702A50280022F027FC2418280022F023FC01305C
S31581702A602D18E3E7032637422FD1402F05DD3A0033
S31581702A702900224823F088FBDDE7214823F084FB77
S31581702A80FB171E40F619FF27B6103F02731E01937E
S31581702A90B44203DB1B4823F077FBCCE7A300FF200E
S31581702AA0EB5800041A0E190611431A0202401B0ACA
S31581702AB011433B401943019B134A9C4200DB134AE5
S31581702AC01348013423F060FBE2E7402FCFDC1148D5
S31581702AD023F05AFBA74201DC0F48DCE77B1E295D98
S31581702AE0094A9C4200DB094A0C48013423F04CFBAD
S31581702AF0F0E7C046B72D7381B42D7381B92D73817B
S31581702B00D94C7381EE4C738100267381DE7B738120
S31581702B10C92D7381D22D738154607381D42D738144
S31581702B20054B4A4604B501001860044805F06CFBF4
S31581702B3004BC914600BDC046F8B87381BD327381BD
S31581702B40F0B5CE4600B5170096B01D00012A02DC9D
S31581702B50012464422FE00222C549586822F085FB20
S31581702B60041E6CD1BE1E002E01D100F0C5FDC14977
S31581702B70A86822F06DFB002822D1FE1E0C35012734
S31581702B80002E1FD14B463E00DB6D0A930A9B002BAC
S31581702B9001D101240FE00AA8FFF7B0FE0028F8D012
S31581702BA00A99002E04D13100B34805F083FC0100E7
S31581702BB0B24823F0E9FA200016B004BC9146F0BD04
S31581702BC00835270010220021286823F077FB0290B0
S31581702BD00A900AA8FFF792FE0028DAD0002F1FD03C
S31581702BE00A9A4B46DA65012EE5D010220021686873
S31581702BF0FF2623F063FB01000A98360443681D0E95
S31581702C001A062A431D0235401B0A2A43FF252D02C7
S31581702C102B401A43914207D2994823F0B5FACAE7F5
S31581702C200298FFF77DFFDEE70A00010021F0D6F9F1
S31581702C300028C0D01FF02EFE01009248B9E7924E4F
S31581702C403368002B03D191480BF08EFFA1E70222E6
S31581702C508F49686822F009FB0290002850D1032FB2
S31581702C6000DC75E701001022A868012423F026FB99
S31581702C7030603000FFF742FE00289CD01022029906
S31581702C80E86823F01BFB0490042F1CD13368FF2066
S31581702C90000459680A0E0B0613430A020240090A98
S31581702CA01343FF22120211400B431A0004993068B4
S31581702CB021F094F9041E20D01FF0ECFD01007148BB
S31581702CC023F062FA65E710220299286923F0F6FAF1
S31581702CD032680100030055682A0E28061043FF22C8
S31581702CE02F0212043A4010432A0AFF252D022A40E8
S31581702CF002439142D9D267488FE7049B33605AE782
S31581702D0002226549686822F0B0FA00281CD1032F27
S31581702D1000DC1DE7A9683068EC6820F074FC002837
S31581702D2004DA1FF0B7FD01005C48C9E70100220093
S31581702D30306821F022F9002801DB00243BE71FF07F
S31581702D40A9FD01005648BBE768680378732B00D0EC
S31581702D50EBE0032F00DCFBE6EB68A968306807932C
S31581702D6020F051FC02900028DBDB042F16D1002362
S31581702D700893089B00244448079A00930299494B0B
S31581702D80006821F070F8A04200DB14E71FF082FD25
S31581702D900100454823F0F8F901340CE708AB079A2E
S31581702DA00299306820F076FB089A80230100DB0057
S31581702DB09A4202DD11003D4882E73A4E002802D0E0
S31581702DC0300027F025F82B000024103308940693E1
S31581702DD03B1F04932B690A931A783C2A3ED1FF27AD
S31581702DE001333F020A930A9D29783E29C1D0049BFB
S31581702DF0A34201DC2E4863E7002905D1069A013486
S31581702E00A3009B580A93EEE700220AA9280023F0B3
S31581702E1055FA2B783F2B16D0020E0306FF211343EA
S31581702E20090402020A40000A13433840184330608D
S31581702E30089B0436043308930A9B5B1B002B08DCC2
S31581702E4029001C483CE70A9B01330A93F0E701335A
S31581702E500A930A9B1A78202AF9D0C4E75B2A4FD144
S31581702E60442501330A930A9B1B785D2B26D133E067
S31581702E705658738164ED7281BD32738167ED72814B
S31581702E8089ED7281B8ED7281F8B87381D4ED7281F2
S31581702E9044EE728147EE72817AEE72817DEE728135
S31581702EA0A3EE7281F8B4738123EF7281C1EE728160
S31581702EB008EF7281E7EE728101300A900A98037881
S31581702EC0202BF9D0002B0DD1069A0134A3009B5883
S31581702ED00A93049BA342C6DC0A9B19785D2900D1AB
S31581702EE047E787E7B64AD35C2B42F5D010220AA909
S31581702EF023F0E4F9089B3070013601330893E8E7D3
S31581702F000A98013422F0CEF90A99471C3000F619D5
S31581702F1022F06AF9089BDF19A300EB1808971B69E1
S31581702F200A93049BA342EBDC23E7672B00D0C1E0B5
S31581702F3000230893042F00DC0AE6AB680493052FFF
S31581702F4003D11B78732B00D002E6EB682969306850
S31581702F5002936B69069320F056FB041E01DA2000FA
S31581702F60DFE6049B1B786E2B03D0732B47D1052F1D
S31581702F7045D12100306820F0EAFB21000A900700D4
S31581702F800AAA30681FF0A6FB049B04001B786E2B7F
S31581702F9031D110220021686923F090F906900125BC
S31581702FA06D420A9ABA421CDD7B1C9B1A5A42534166
S31581702FB0ED18049B1B786E2B0CD1069B9D4209D113
S31581702FC021000022306820F082F90100029805F014
S31581702FD0EBF8B2E621000AAA30681FF07BFB041E6B
S31581702FE0DFDA049B77481B78732B4BD1691C029867
S31581702FF005F0FCF8A1E601235B420693CFE7210039
S31581703000306808AB069A20F045FA089D06006E492D
S31581703010002DDBD0002847D0002D45DD049B1B7821
S31581703020762B32D12900FFF7C9FC3100041ECDD130
S31581703030042D16D13368FF200004190E1A060A432F
S31581703040190201401B0A0A43FF2109020AA80B4093
S315817030505E491A4323F08CF80AA9029805F0A4F800
S31581703060A9E5AB070DD1142D0BDC070078000AABEF
S31581703070F259C0185649043723F07AF8BD42F5DC07
S31581703080EAE7544823F080F883E5612B06D15249EB
S3158170309002000AA823F06CF80AA997E7732B00D06F
S315817030A056E52A004949F4E728001FF0F3FB010031
S315817030B04A4805E6702B26D06C2B00D0F8E06B3B26
S315817030C00493022F21D0AB68069300230293032FBA
S315817030D001D0EB6802930699306820F094FA041E49
S315817030E000DA3CE7029B3068002B24D021000AABC2
S315817030F0029A20F0CFF90A9C0500002C09D1029A18
S315817031000699374889E52023DAE7364B06930023FB
S31581703110E0E700280DD0002C0BDD0299324823F0B0
S3158170312033F80A992800FFF771FC304823F02CF8A0
S3158170313003E62000B9E7029D20272D4E210008AABB
S3158170314030681FF048FA01000138082800D9A9E0D3
S3158170315026F06EFE090024005C00A100A800A8007C
S31581703160A800A8001FFD00222100306820F0AFF86A
S31581703170049B0200AB420CDB002800D11D4A1378F8
S31581703180002B00D11C4A1D497B1B1D48C91822F092
S31581703190FBFF01351F2D0EDD1A4873E7049B013D38
S315817031A0AB4208DB15497B1B1748C91822F0ECFF27
S315817031B0002D00D1C1E5089C6B1CBED1BDE5C04612
S315817031C00EBF72813DEF7281DE7B738154EF7281A6
S315817031D0162473815BEF728175EF72817AEF7281DA
S315817031E009857381AD987381C7EF72813B2973812C
S315817031F0F8B873814BED728162ED7281AF9873818C
S3158170320094EF72819CEF7281B8EF728121000C22EA
S3158170321030681FF099F983680400FF2000041A0E44
S31581703220190611431A0202401B0A1143FF22120228
S3158170323030681340FF26194336041FF076FF6168A4
S3158170324002000B06080E0343080230400343080A46
S31581703250FF210902084018430A9000D525E7049B8F
S3158170326008D1AB42A7DBD4497B1BD448C91822F05D
S315817032708BFFA0E7AB429EDBCF497B1BD048C91839
S3158170328022F082FF20000A990C30FFF7BFFBCD48F0
S3158170329022F07AFF8FE7C8497B1BCB48C91822F089
S315817032A073FF88E7049BAB4200DA72E4C74807E58F
S315817032B00222C74921F0D9FF00281ED1A96830683A
S315817032C020F0A1F9011E00DA2BE53068032F0ADDA3
S315817032D0EA6820F0DDFD041E00DB2EE51FF0DAFAC8
S315817032E00100BC4865E420F056FE041E00DB24E52F
S315817032F01FF0D0FA0100B8485BE468680378682BE0
S3158170330000D09EE03268FF252D04FF242402B34845
S315817033105369190E1F060F43190229401B0A0F4361
S3158170332023401F4313681A0E190611431A022A4045
S315817033301B0A11432340194322F026FF3368A8489C
S315817033405B681A0E190611431A022A401B0A23401A
S31581703350114319430A0022F017FF3368A1489B680D
S315817033601A0E190611431A022A401B0A1143234069
S31581703370194322F009FF33689B48DB681A0E1906D8
S3158170338011431A022A401B0A11432340194322F022
S31581703390FBFE336895481B691A0E190611431A028A
S315817033A02A401B0A11432340194322F0EDFE39004E
S315817033B08F4822F0E9FE33688E489B691A0E19068A
S315817033C011431A022A401B0A11432340194322F0E2
S315817033D0DBFE012F2DD933688748DB691A0E1906F2
S315817033E011431A022A401B0A11432340194322F0C2
S315817033F0CBFE022F1DD0336880481B6A1A0E1906C0
S3158170340011431A022A401B0A11432340194322F0A1
S31581703410BBFE102F0DD9336879485B6A1A0E19066F
S3158170342011431A0215401B0A29431C40214322F07D
S31581703430ABFE30681FF0D5FE0100724822F0A4FE03
S3158170344073E60322704921F010FF041E15D1010025
S315817034501022A868FF2522F031FF010E03060B4367
S315817034602D04010232682940000A0B43FF210902AB
S3158170347008401843D061FFF79EFB02226349686852
S3158170348021F0F3FE0290002817D110220100A8685E
S3158170349022F092FF1022049005910299E86822F039
S315817034A08BFF049A059B00900191306807F0B0FEFE
S315817034B0041E00DD41E4FFF77EFB022254496868F1
S315817034C021F0D3FE041E61D1AB681B78702B27D196
S315817034D0306827001FF085FE05004E4822F054FEA5
S315817034E04D4822F051FEAF4200DB26E40AAB08AAB2
S315817034F0390030681FF02BFE041E05DA1FF0CAF9F9
S3158170350001004648FFF755FB0A9B3900099A013736
S31581703510434801930B9B0093089B22F035FEE2E7AB
S31581703520612B1CD110220100E86822F045FF102220
S31581703530029003912100286922F03EFF029A039B33
S3158170354000900191306820F0BCFB041E01DBFFF70F
S31581703550F4FB1FF09FF901003248FFF72AFB642BB9
S3158170356001D0FFF7F5FA01001022E86822F0A6FE75
S315817035700100306820F008FC041E01DBFFF7DDFBDB
S315817035801FF088F901002848FFF713FB03222749AA
S31581703590686821F06AFE00284CD14B4630681968FC
S315817035A0FEF76CF8002801D1FFF7C7FB1FF072F99F
S315817035B001001F48FFF784FBAF987381BEEF72815C
S315817035C0C5EF7281C2EF7281CDEF7281DAEF72814E
S315817035D0545E7381EEEF728109F0728125F072818A
S315817035E034F072814BF0728161F0728178F0728100
S315817035F08FF072819DF07281B4F07281CBF072819D
S31581703600E2F07281F9F0728110F1728131E072812A
S3158170361014F1728117F1728132F1728164F1728162
S3158170362083F172819DF17281BCF17281DBF172815C
S31581703630DFF1728103223349686821F016FE041E18
S315817036401ED1022F19D0042F01D0FFF781FA010004
S315817036501022A86822F032FE102207002100E86845
S3158170366022F02CFE0500306807F09CFC2A00390098
S31581703670306807F0E1FBFFF79EFA05000700F2E775
S3158170368021490222686821F0F0FD011E1ED1032FA7
S3158170369001D0FFF75DFA3368002B01D1FFF779FA14
S315817036A01022A86822F00AFE0A900AA8FFF726F966
S315817036B0002801D1FFF76DFA0A99306807F066FF25
S315817036C0041E01D0FFF765FAFFF775FA02220F49DA
S315817036D0686821F0CAFD041E01D0FFF739FA01002E
S315817036E0022F04D01022A86822F0E8FD010030680C
S315817036F007F01CFEFFF75FFA054B1B680A93FFF70D
S3158170370045FAC0460B3A73810EF27281A84C738169
S31581703710F8B8738100207047D00F0223002193423D
S315817037204841404270470020704713B50024009489
S3158170373015F0AEFB16BD0000F7B506000F0015003B
S315817037401C005868022A0FDD9968094A042D00DD2C
S315817037501A69FEF7F5FC00232A00009339003000C0
S31581703760230015F0B9FBFEBD01490A00F1E7C04699
S31581703770DE7B738113B50024009415F0A1FC16BD10
S3158170378013B50024009415F065FC16BD10B515F0BF
S3158170379011FD10BDF0B5CE4600B596B00E00050090
S315817037A01C0001920022019913F05DFB002829DB30
S315817037B02368DA0701D4022820D09A0712D5002E01
S315817037C010D004273B4205D00A200BF0A3F9236859
S315817037D0BB43236031000D4822F0D6FC2268022358
S315817037E09A432260502302AA0199280013F04EFB56
S315817037F0002807D1064802A922F0C6FC16B004BC7F
S315817038009146F0BD01000348F6E7C0465C147381AA
S31581703810FC2C738172CB7281F0B5CE4600B586B0C1
S3158170382016001D000190012A02DC0124644226E003
S315817038305C68022A2DD07749986821F009FD0028A5
S3158170384022D0083500262F6802227349200021F084
S315817038500CFD00286CD10490002F04D03B785A1E41
S3158170386093415B421F4003A9142010F050FC039AC8
S31581703870002A14D1010001980DF072FC0400200019
S3158170388006B004BC9146F0BD0C35032E04D00126DA
S31581703890D9E700263700D7E701260700D4E7049BCE
S315817038A00221002E00D003210B43100005A9049339
S315817038B013F0CDFA059B0500002B03D103A810F0F8
S315817038C03DFCD4E7002813D021F0ECFC0400002FD6
S315817038D02CD002002900380021F0C7FC002808D0BE
S315817038E0049A02231A42E9D1DB1813430493E5E75C
S315817038F004003819002F19D003780024A34211D0FF
S3158170390021000A2222F0DAFC04AB02002900039816
S31581703910FFF740FFE4E72200013404AB29000398E6
S31581703920FFF738FF059B9C42F5DBD9E70024F9E761
S31581703930002F00D179E72378692B18D011D8022509
S31581703940632B00D071E7002205AB1100380013F0AC
S3158170395079F9041E0FD03900304822F015FC210008
S3158170396089E7732B05D00325742BECD05DE7002591
S31581703970E9E70125E7E72A49059813F0BFF90300BE
S31581703980102210330190934304D00599254822F073
S31581703990FBFB4AE70598244E002D24D113F0F6F9E6
S315817039A0059813F045FA04003900059A1F4822F0EC
S315817039B0EBFB21001E48B44229D81E4822F0E4FB55
S315817039C0002D08D0059813F033FA0100B0421BD947
S315817039D0194822F0D9FB019B103300D14FE7059826
S315817039E013F0C3F94BE7022D09D00124032D06D1BB
S315817039F013F01EFA0400B04201D863425C41210083
S31581703A00059813F0DDF9CFE78442E4D00B4822F0B4
S31581703A10BBFBE0E75B60738188537381A1F272812E
S31581703A20B7F27281C0F2728100F0FFFFE0F27281AB
S31581703A3001F3728199F0728113F372813FF372810E
S31581703A4010B50C0003782A2B10D101301022002179
S31581703A5022F034FC022C05D0042C05D0012C11D116
S31581703A60007810BD0088FCE70068FAE71022002113
S31581703A7022F024FC032CF4D80123E4005B42A3409A
S31581703A809843EEE70020ECE710B503782A2B05D131
S31581703A9001301022002122F011FC10BD242BFCD1A3
S31581703AA043787B2B0ED10230020013787D2B04D1A3
S31581703AB00023137004F0D2FCEFE70132002BF4D1AE
S31581703AC01800EAE70020E8E7F0B5002587B0060020
S31581703AD01F000391049221F0E5FB0190394B5A192D
S31581703AE00592682D04D13100374822F04DFB57E09D
S31581703AF0EB583000019A1900029321F0B6FB041E2F
S31581703B005ED1029821F0CEFB019B834258D1059BF1
S31581703B105E68002F27D10398FFF7B6FF05000498DA
S31581703B20FFF7B2FF0100280021F092FB0300052EFA
S31581703B3007D8300026F024FA03080C0E12155C4261
S31581703B405C41200007B0F0BD1C00631E9C41F8E704
S31581703B50DC0FF6E7DC17E41AE40FF2E75C1E1C4310
S31581703B60FAE7DC43F8E739000398FFF769FF390014
S31581703B7005000498FFF764FF0300052EE1D8300035
S31581703B8026F0FEF903070B101419ED1A6C426C417D
S31581703B90D7E7EC1A651EAC41D3E701249D42D0DB91
S31581703BA00024CEE701249D42CBDCF9E7EC0FDA17CE
S31581703BB0AB425441C5E7EC17DA0F9D425441C0E7D9
S31581703BC008358BE7B4AA7281A3C1728110B51C00C6
S31581703BD0042A1BD1110018680DF05AFA03000230BD
S31581703BE006280ED826F0CCF9040D0D05050D0500B5
S31581703BF00023E2686168A068FFF766FF4342584117
S31581703C0010BD04480AF0B0FF0020F7E7012040425A
S31581703C10F6E7C04683F57281F0B5CE461E00130075
S31581703C20033B00B582B00092012B32D80421012466
S31581703C3030680DF02DFA051E1BDD1022002170688B
S31581703C4022F03CFB144B102200211B68C318B0680C
S31581703C50019322F033FB009B07002000042B04D1D3
S31581703C6010220021F06822F029FB019B013805D2D0
S31581703C700024200002B004BC9146F0BD042D02D10F
S31581703C801F605B19F2E7022D01D11F80F9E71F7062
S31581703C90F7E701246442ECE7FCB87381F0B5CE4650
S31581703CA000B51E00022A35DD042118680DF0F0F981
S31581703CB0051E34DB10220021706822F0FFFA102273
S31581703CC004000021B06822F0F9FA012809D1042D87
S31581703CD001D12368FDE7022D01D12388FDE7237881
S31581703CE0FDE7042D06D122000300013BFBD3116849
S31581703CF00432FAE72218022D06D122000300013B15
S31581703D00FBD311880232FAE723009342FCD01978EB
S31581703D100133FAE70120404204BC9146F0BD01208F
S31581703D20FAE70000F0B51F00234BCE4600B584B08C
S31581703D301B6803920293012A3BDD012421400E1EEA
S31581703D401DD01E4B1C681E4B1D682900102026F045
S31581703D50D7F8029B2A00009021002000029E21F054
S31581703D60ABF86E43154BA419029A00201C60124B56
S31581703D701A60134B1D6004B004BC9146F0BD0421DA
S31581703D8038680DF085F905002000002DF3DB1022CF
S31581703D903100786822F092FA0A4B1C68039B0419E9
S31581703DA0022BD2D010223100B86822F087FA0290A5
S31581703DB0CBE701204042DEE7D098738100B97381E9
S31581703DC004B97381FCB87381F0B5CE4600B51F0016
S31581703DD088B0042A5AD11100012618680DF058F955
S31581703DE0041E43DB2B4D082806D02B4D042803D0A7
S31581703DF02A4D022800D02A4D10220021786822F09F
S31581703E005DFA284E102200213368C318B86807936B
S31581703E1022F054FA3668102200218619F86822F049
S31581703E204DFA079B02000027F11A8C466146581895
S31581703E30974201D1002614E0042C1CD119680068C0
S31581703E40814220D0079A0490009129009B1A03948D
S31581703E50D218F3180126029301952300124822F095
S31581703E6093F92A003900114822F08EF9300008B092
S31581703E7004BC9146F0BD022C02D119880088DFE717
S31581703E8019780078DCE71B190137CFE7012676426E
S31581703E90ECE7C046F1F57281F8F5728102F67281AE
S31581703EA0FDF57281FCB873810BF672813DF6728174
S31581703EB030B5CE4600B5084C012A05DD10220021A9
S31581703EC0586822F0FBF920602168044822F05CF979
S31581703ED0002004BC914630BDFCB87381DAF57281DD
S31581703EE0F0B5CE4600B51C0084B0042A32D11100DB
S31581703EF0012518680DF0CCF8071E19DB10220021F8
S31581703F00606822F0DBF9154E102202900021A068BC
S31581703F103368019322F0D2F9102203900021E06870
S31581703F20366822F0CBF9002807D10D480AF01CFEBD
S31581703F30280004B004BC9146F0BD02007A43029811
S31581703F40019B0025844663441900039BF01825F074
S31581703F505FFFEDE701256D42EAE7C046FCB87381E4
S31581703F605FF67281F0B5CE4600B5060082B01F004D
S31581703F70022A4FD101250D401ED02C4B1D682C4B2A
S31581703F801C6829002B48270022F0FEF8042C24D1C6
S31581703F902968294822F0F8F828480AF07DFC00281B
S31581703FA006D0274F012820D13B782D2B1DD1674212
S31581703FB0002EE6D0ED19E4E7042118680DF068F853
S31581703FC004000120002C27DB29001022786822F05A
S31581703FD075F91C4B1D684519D3E7022C02D12988C6
S31581703FE01948D7E729781948D4E7102201A93800EA
S31581703FF022F064F9019BBB4212D0042C04D1286053
S31581704000002EBED02D19BCE7022C01D12880F7E78E
S315817040102870F5E70120404202B004BC9146F0BD9C
S31581704020024B00201D60024B1C60F5E708B9738155
S315817040300CB973810E24738115247381272473813E
S31581704040C8C57381FCB873811B24738121247381E4
S3158170405090B5CE4600B50120FFF784FF04BC91462A
S3158170406090BD90B5CE4600B50020FFF77BFF04BCAE
S31581704070914690BD37B50D00140001A9102222F02A
S315817040801DF9019B0006000E28701A782D2A05D11C
S31581704090581C1D3A0021019022F010F9207037BD0D
S315817040A0F0B516009BB01D00012A04DC01277F4202
S315817040B038001BB0F0BDD04B16AC10A801270F404D
S315817040C01A78227010AA5B786370CC4B1B689374D4
S315817040D0CB4B1B68D374CB4B1A6815AB1A70CA4B12
S315817040E01A6815231B181A70C84B1A681A231B185D
S315817040F01A80C74B186803041B0C0693002F35D1A1
S315817041006B6868681B78237021F0CCF8012837D9E1
S315817041106B685B786370022E28D010AA13239B1864
S3158170412010A91A0012235B18A8681900FFF7A2FF5D
S31581704130032E1BD0152210ABD21815A9E868FFF78C
S3158170414099FF042E12D010220021286922F0B6F828
S315817041501A2310AA9B181880052E07D010220021C9
S31581704160686922F0ABF803041B0C069310AB132716
S31581704170FF183B781F2B05D9A64822F005F895E7DD
S315817041806770C8E707F086FA23780590692B68D13E
S31581704190022E2BD010AB3D789C7CAC4229D900275E
S315817041A016AA954B1178197052785A7010AA1223E3
S315817041B09B181A78914B1A6010AA13239B181A7838
S315817041C08F4B1A6015AB1A788E4B1A6010AA15230D
S315817041D09B181A788C4B1A6010AA1A239B181A8806
S315817041E08A4B1A608A4B069A1A6061E71F250024EA
S315817041F0D3E710AB16271726FF18F61817AA00965D
S315817042003B002100059807F0ADFA002825D1179B50
S315817042102100059807933B7808933378099307F0C3
S31581704220D5FA21000700059807F062FB7A4E0028BF
S3158170423000D07A4E2100059807F012FB784B2C2816
S3158170424000D1784B03932100099B029601970093C5
S31581704250079A089B744821F097FF01342406240E2F
S315817042609BE7722B54D110AB00279C7C15AB10AA9F
S315817042701D7813239B181B78A34217D290E710AB36
S315817042801A26F61801235B422A00338021003300F7
S31581704290059807F009FA002821D001272A00210004
S315817042A0624821F071FF01352D062D0E10AB5B7DB5
S315817042B0AB42E4D210A91222521810A81178132297
S315817042C012181278914206D015AA12789A4202D0A3
S315817042D0574821F059FF01342406240EC6E710AAE7
S315817042E012239B1810A91A7813235B181B789A428C
S315817042F004D115AB1A784B7D9A4204D02A002100DD
S315817043004C4821F041FF31884B4821F03DFFCAE787
S31581704310772B2AD110AB00279C7C012615AB10AA6E
S315817043201D7813239B181B78A34210D238E72A0075
S315817043302100059807F0D1F9002805D037002A00A9
S3158170434021003E4821F020FF01352D062D0E10AA41
S315817043501A239B1810A915221B8852181278AA4203
S31581704360E5D201342406240ED8E76D2B70D110ABBB
S3158170437000279C7C15AB10AA1D7813239B181B787C
S31581704380A3421AD20CE717AE002333802A0033007A
S315817043902100059807F088F9002818D0284821F05F
S315817043A0F3FE01272100274821F0EEFE29002648D9
S315817043B021F0EAFE01352D062D0E152310AA9B18C4
S315817043C01B78AB42DFD201342406240ED2E73388C0
S315817043D010A9069A059893431A225218069912883B
S315817043E00A40210013432A00338007F076F90028AA
S315817043F0E0D01648D3E7C04620B9738114B973816A
S3158170440010B9738128B9738124B9738118B973818D
S315817044101CB97381A3F672819DF6728159EF72818F
S3158170442074F6728170F67281D0F6728117F7728125
S315817044303B29738146F772815FF7728165F7728165
S3158170444092F77281ADF772813BF77281B8F772819B
S3158170445002228B49200020F008FF002800D0FEE060
S3158170446015AB1B78052B05D8152310AA9B181B78BD
S31581704470052B04D98348012721F086FE18E610ABF7
S3158170448007009D7C01230C9315AB10AA1C7813230E
S315817044909B181B78AB4215D282E617AA6300D31894
S315817044A029002200059807F0FFF8002807D022001E
S315817044B029007548012721F067FE00230C9301348A
S315817044C02406240E152310AA9B181B780B93A342DE
S315817044D0E3D20C9B002B06D101356C482D0621F059
S315817044E053FE2D0ED0E715AB1B78109300230793DF
S315817044F0109B079A934233D80B9B934230D35300C8
S3158170450017AA9E5A079B6248DB000A930A9A614BE7
S31581704510D25A08920A9A08999B1832005B6821F0E0
S3158170452033FE331201221A405B4B0E920F9301D0E8
S315817045305A4B0F93B30901221A40730B11920122C0
S315817045401A40574B12920A9A9B1813930023099318
S31581704550139B099A9B889A4208D34C4821F014FE82
S31581704560079B01330793062BC2D1B5E7099A0C23B2
S315817045700A9953434A4A4B488C58E4186388A188F0
S3158170458099400B0009043340090C0D930D9A089BD1
S3158170459021F0FAFD089B6088002B25D106281AD157
S315817045A08122414B92013240402A05D080213F4B76
S315817045B089018A4200D13E4B01930D22129B0621BD
S315817045C03C480093119B21F0DFFD304821F0DCFDE2
S315817045D0099B0133BBE708282DD101000F9B0E9AE9
S315817045E0354821F0D1FDF0E7089B2188042B10D145
S315817045F0002820D1A388314A3340012B03D0304A19
S31581704600022B00D12F4A30480092002221F0BCFD46
S31581704610DBE7089B052B0ED100280CD1A388274A8E
S315817046203340012B03D0264A022B00D1254A0092B2
S3158170463000222648EAE7218881420BD1010024486D
S3158170464021F0A2FD63880D99A2682248194121F053
S315817046509BFDBAE70200204821F096FDF2E702221F
S315817046601E49200020F001FE071E00D01EE5022E95
S3158170467002D107F04BF893E5A86806F0D7FF8FE56E
S31581704680D1F77281D4F7728117F772813B29738161
S3158170469018F872811CAB728147F8728142F8728107
S315817046A0FCA572814CF872813A6F73817CF6728146
S315817046B078F672815FF872818EF872817FF6728177
S315817046C09FF672818AF67281AAF87281C9F87281AF
S315817046D0EBF87281FAF87281F2F872810F1B73812D
S315817046E0F7B5170001901E000D000A225868013F28
S315817046F013490CF051FA331D041E00931DD0436883
S31581704700BB421ADB012D02D18068002814D00D4E70
S315817047103368002B05DA11F035FC002808DD00239B
S315817047203360E4683A00009B29000198A04703E052
S3158170473005480AF019FA0120FEBD01204042FBE7C7
S31581704740D4987381EC997381D7FC728170B50500A9
S315817047500E0011F0C7FB041E05D12900084821F00F
S3158170476013FD200070BD002E01D00023436120000F
S3158170477011F02AFB4342584140420440F1E7C0465A
S31581704780371B7381044B012110B51868FFF7DEFF63
S315817047904342584110BDC046EC997381F0B595B0CE
S315817047A0029200212C2209A80493012425F068FB2A
S315817047B0BB4B00211868FFF7C9FF0690002808D007
S315817047C0002325000193029B002B00DDE6E0012486
S315817047D06442200015B0F0BD049BAE00B1499F19AB
S315817047E0386820F035FD041E57D16B1C043607934B
S315817047F00100079A09A8029B9B1A0C220393049BBA
S315817048009B19059325F03CFB039BA34202DC079B16
S315817048101D19C3E0059BA500A3495E19306820F078
S3158170482017FD071E11D1039AA31C9A42CFDD010091
S315817048300A227068033421F041FD0A2209903900F9
S31581704840B06821F03BFD0A90DEE79849306820F028
S31581704850FFFC0028DBD1039A631C9A42B7DD09AE4F
S315817048600122337A0435924913433372059B5D195C
S31581704870286820F0EDFC002805D1337A0222134393
S3158170488033720234C0E78B49286820F0E1FC002836
S315817048909DD1337A02229343F2E7022286493868A0
S315817048A020F0E3FC041E71D1386820F0FBFC0328EC
S315817048B06CD13B689B781A00313A05921206120EBA
S315817048C0032A63D86A1C303B0792DD00079909ABCE
S315817048D0029A0436281D1818521A21000392049AD6
S315817048E09619082225F0CCFA039B012B00DC6EE722
S315817048F00A222100306821F0E1FC09AB5D196860FC
S315817049000125AF006849F419206820F0A1FC0028C0
S315817049100FD1059B09AA01216D180133DB00D318CC
S315817049201A7A0A431A72039B9D42EADB079B5D19C9
S3158170493034E05E49206820F08BFC0028F6D1039A1A
S315817049406B1C9A4200DC42E7059B02220437584968
S31581704950F7195C1C09ABE40038681C19237A134378
S31581704960237220F075FC002805D1237A0422134323
S3158170497023720235D7E74F49386820F069FC0028E1
S3158170498000D024E7237A04229343F1E74B493868B0
S3158170499020F05EFC002861D101350190029B9D4219
S315817049A000DA19E7464809AD0AF0DEF86B68002B24
S315817049B068D044480AF0D8F8434C09982200C10D52
S315817049C0400220F00FFA41480AF0CEF8686822005A
S315817049D0C10D400220F006FA2B7ADA0706D53549E1
S315817049E09B0700D532493A4821F0CEFB0024E70077
S315817049F0661CEB193100DB68002B47D03548EF19FF
S31581704A0021F0C2FBF300F868EB182F4A1B7AC10DAF
S31581704A104002DB0700D5304A20F0E4F90134E40026
S31581704A202C19237A9A0707D5224A5B0700D5204A23
S31581704A3031002A4821F0A8FB3400042ED7D1019A7F
S31581704A402900069810F010FA041E23D1019B022BBF
S31581704A5000D0BEE622480AF087F8BAE6214938685E
S31581704A6020F0F6FB002803D101350123019395E7E8
S31581704A701D49386820F0ECFB002800D0A7E6013587
S31581704A800223F3E719480AF06FF8A5E7184821F071
S31581704A907BFBC3E7174801240AF066F899E6C0469E
S31581704AA0EC997381F4F97281F9F97281FDF97281E8
S31581704AB0C673738156E2728103FA7281C11A7381E8
S31581704AC006FA728120FA72813B29738137FA728173
S31581704AD06AFA728191FA7281EEF97281B6FA72818D
S31581704AE0D3FA7281AE1A7381AB5373814DFA728127
S31581704AF0A2FA72810BFB728110B50A2011F070FADD
S31581704B00002010BDF8B51D00012A23D1274B1C68E2
S31581704B10002601212000FFF719FE071E37D03200CB
S31581704B20210006200FF096FF214A051E00D0214AEA
S31581704B303100214821F028FB002D28D11B4B1C60A8
S31581704B403B0061331B78FF2B24D121001B4821F058
S31581704B501BFB1DE0022A06D108320021586821F01C
S31581704B60ADFB0400D4E7032A1DD1073200215868B2
S31581704B7021F0A4FB0A2204000021A86821F09EFB83
S31581704B8006000728C5DD07210D4821F0FDFA0125AC
S31581704B902800F8BD380011F0F3F92100C27A09486E
S31581704BA021F0F2FAF4E701256D42F1E7EC99738110
S31581704BB0BAC17281BDC172812EF972814CF97281CD
S31581704BC007F9728165F97281F7B51C00042A35D1AE
S31581704BD00C320021586821F071FB1022019000215E
S31581704BE0A06821F06BFB102200210500E06821F09E
S31581704BF065FB144F040000213868FFF7A7FD060096
S31581704C000120002E19D02A00230039680E4821F020
S31581704C10BBFA300011F0B4F922002900866F019B2E
S31581704C20B0470A4A0500844200D0094A29000948DA
S31581704C3021F0AAFA601B441EA041FEBD01204042AC
S31581704C40FBE7C046EC99738129FB7281BAC1728187
S31581704C50BDC1728158FB7281F7B51C00032A39D1A7
S31581704C600D3200215868012521F028FB1022019010
S31581704C700021A06821F022FB184F040000213868BA
S31581704C80FFF764FD061E0ED02300019A3968144819
S31581704C9021F07AFA30000FF03DFF0500012804D12A
S31581704CA0104821F071FA2800FEBD300011F068F9C4
S31581704CB0031D2200DB6F019998470B4A05008442D8
S31581704CC000D00A4A29000A48651B6C1EA54121F04D
S31581704CD05BFAE8E701256D42E5E7C046EC99738199
S31581704CE087F97281B7F97281BAC17281BDC17281D8
S31581704CF0D8F97281F7B51C00042A3FD10C32002194
S31581704D005868012521F0DAFA102201900021A068F5
S31581704D1021F0D4FA102200900021E06821F0CEFAB9
S31581704D20184F040000213868FFF710FD061E0ED05B
S31581704D302300009A3968144821F026FA30000FF062
S31581704D40E9FE0500012804D1104821F01DFA2800DA
S31581704D50FEBD300011F014F92200C56F019B0099D8
S31581704D60A8470B4A0500844200D00A4A29000A489E
S31581704D70651B6C1EA54121F007FAE8E701256D4296
S31581704D80E5E7C046EC99738189FB7281B7F97281C7
S31581704D90BAC17281BDC17281B9FB7281F0B585B0BC
S31581704DA0894C2368002B05DA11F0ECF8002876DD42
S31581704DB00023236020680021FFF7C8FC04000120CE
S31581704DC0002C70D0A368FF258048196821F0DCF922
S31581704DD0E36C7F48190E21F0D7F9E36C7D48190A87
S31581704DE00904090C21F0D0F9206DE16C020E030CD7
S31581704DF00600000A28402E402B40294000900196DB
S31581704E00754821F0C1F9616E744821F0BDF9A16EC2
S31581704E10734821F0B9F9E2687249002A00DA724959
S31581704E20130A120C2B402A40704821F0ADF9E168C3
S31581704E30294002D06E4821F0A7F96E4D280021F0E5
S31581704E40A3F9A3696C49002B00D06C496C4821F099
S31581704E509BF96C4809F088FE23002A00883318680C
S31581704E6059681FF0BFFF2300E169FC33664A9B6E68
S31581704E70002B00D0654A664821F086F9654809F0AD
S31581704E8073FE206F2A00C10D40021FF0ABFF624A8C
S31581704E90E3689B18614A934207D9002003E0604812
S31581704EA009F062FE012005B0F0BD230000265E3355
S31581704EB01F7802231F40B74204D023005F331E78C8
S31581704EC001231E40574809F04FFE606F2A00C10DBD
S31581704ED040021FF087FF544809F046FE23004A4A74
S31581704EE0903318685968002E00D0504A1FF07AFFA7
S31581704EF02300603303931B78DB075CD54C4809F03C
S31581704F0033FE002E13D04B4809F02EFE23002A0063
S31581704F10C833186859681FF065FF474809F024FE41
S31581704F2023002A00D033186859681FF05BFF434805
S31581704F3009F01AFE2300983318685968002F00D03B
S31581704F403F4D2A001FF04EFF3E4809F00DFE2300AB
S31581704F502A00A0330025186859681FF043FF002383
S31581704F60013502939F4206D0230001225F331B785D
S31581704F702B411A400292EE00A036A61933687268E8
S31581704F80134315D02900304821F0FEF8029B306812
S31581704F9071681D4A002B00D0244A1FF023FF039BA2
S31581704FA001221B782B41134209D0214809F0DCFD7F
S31581704FB0042DD4D171E70A2009F0ACFDA1E70A204E
S31581704FC009F0A8FDF4E7C046EC997381E1FB728123
S31581704FD0EDFB728102FC72810BFC72811EFC728107
S31581704FE02EFC72817F797381ED6D738140FC728144
S31581704FF04DFC72813B297381D4FB7281D0FB7281A6
S3158170500051FC7281CCFC7281DE7B7381D7FB72819C
S3158170501064FC728179FC7281FFFBFBBFFEFBFB3FF7
S31581705020D7FC72818CFC72819FFC7281DCFB7281F0
S31581705030AFFC728121FA728138FA7281B7FC728102
S31581705040EEF97281C7FC728192FA728170B5022A09
S3158170505027D10E320021586821F030F9124E0400A2
S31581705060306810F03FFF051E06D1012431680F4864
S3158170507021F08AF8200070BD2104090C10F00CFF14
S315817050800B49041E00D00B490B4821F07DF8002C8A
S31581705090F0D16C61280010F097FE0400601E844187
S315817050A0E8E701246442E5E7EC997381371B7381E4
S315817050B06CFB7281BDC172817DFB728110B50021DD
S315817050C00C4C2068FFF742FB012300280BD0216826
S315817050D006200FF047FC002807D0037BFF2B04D0F6
S315817050E00CF032F90023180010BD034809F03CFD1D
S315817050F00123F8E7EC99738114FB7281F0B5060090
S315817051008BB0584815001C00019103F0A7F900284F
S3158170511005D01022002121F0D1F8534B1860022D51
S3158170512012D0032D28D0012D31D1502003F055FA9C
S31581705130300022F023FD05005120002D30DA4042E7
S31581705140012503F04AFA28E0102203A9606821F04C
S31581705150B5F865680700280020F0A4F8039B2D1820
S31581705160AB4202D1404B1F60DFE761688022D2007B
S315817051703E4823F0F9F8D8E710220021606821F0C3
S315817051809DF8394B8022D200A1681860F0E701251D
S3158170519050206D42404203F020FA28000BB0F0BDDA
S315817051A003F01BFA324B1868002806D004A923F045
S315817051B003F904A92F4802F0F7FF2F4B18680028CE
S315817051C006D004A923F0F8F804A92C4802F0ECFF64
S315817051D02B490B78002B02D02A4802F0E5FF2A4929
S315817051E00B78002B02D0294802F0DEFF284B186815
S315817051F0002806D004A923F0DFF804A9254802F017
S31581705200D3FF254B1868002806D004A923F0D4F85B
S3158170521004A9224802F0C8FF214B1868002806D0DD
S3158170522004A923F0C9F804A91E4802F0BDFF1E49DE
S315817052300B78002B02D01D4802F0B6FF5220002D4C
S3158170524003D1404203F0C9F9A7E703F0C6F9216893
S315817052500198FCF727FB05005420002DF2D05320CE
S31581705260EFE7C046642573812CA37381D03577812E
S31581705270E839778194E87281F439778176E8728139
S3158170528034357781A4E87281743577816D25738120
S31581705290EC3977816AE872814858778185E87281BD
S315817052A0DC39778176257381543577817C25738155
S315817052B010B501000020FFF721FF10BD10B5010068
S315817052C00420FFF71BFF10BD10B501000720FFF703
S315817052D015FF10BD70B515001E000400AD2003F0DA
S315817052E07CF933002A0021000320FFF707FF0400B1
S315817052F0AE2003F072F9200070BD000010B51C005D
S31581705300012A02DC0120404210BD58681BF0BCFAAC
S31581705310094B18600028F5D0052022F02FFC6168B2
S31581705320002804DA054820F02FFF0120ECE70448B5
S3158170533020F02AFF0020E7E70461778120FD7281E2
S3158170534043FD7281F0B50500374C0F00A5440128E5
S3158170535006DC01235B421800A5239B009D44F0BDAA
S31581705360022857D00E00022308360093002301933A
S31581705370346823782D2B0FD12C4920001FF068FFBC
S31581705380002842D1009B0436013300930123019397
S31581705390009B9D42ECDC0400009B0133AB42D8D16B
S315817053A003AA03CF0CF076F801230028D3DB002CF7
S315817053B034D024AE8022012592000021300024F061
S315817053C05FFD06AA290003980CF020F8002813D1F6
S315817053D0019B002B02D0199B002B0DD03378144A78
S315817053E0002B00D0134A14492B0004A820F0C0FE6C
S315817053F004A930001FF009FF0135802DE1D13100FC
S31581705400200002F0D1FE0023A5E731680B4820F019
S31581705410BBFE9EE7002301931C00C1E703980BF046
S3158170542093FF230097E7C0466CFDFFFFFAFC7281FC
S31581705430DE7B73810026738117FD728104FD728113
S3158170544070B580221D4C06000D0092000021A54486
S3158170545020A824F015FDF31E012B2BD80022A868F5
S31581705460110020F02BFF01AA0400696828680CF0EE
S3158170547011F8002805DA01242000A0239B009D44A1
S3158170548070BD210002AA01980BF0C0FF041EF2D1F3
S315817054908021029B89000A4A20A820F054FE20A907
S315817054A0042E03D1E86802F07FFEE5E7054820F017
S315817054B06BFEE1E701246442DEE7C04680FDFFFFB3
S315817054C01CFD7281FC2C738170B580221D4C060087
S315817054D00D0092000021A54420A824F0D1FCF31E72
S315817054E0012B2BD80022A868110020F0E7FE01AAB3
S315817054F00400696828680BF0CDFF002805DA01245D
S315817055002000A0239B009D4470BD210002AA0198B2
